{
  "contractName": "UstxToken",
  "abi": [
    {
      "constant": true,
      "inputs": [],
      "name": "mintingFinished",
      "outputs": [
        {
          "name": "",
          "type": "bool"
        }
      ],
      "payable": false,
      "stateMutability": "view",
      "type": "function"
    },
    {
      "constant": true,
      "inputs": [],
      "name": "name",
      "outputs": [
        {
          "name": "",
          "type": "string"
        }
      ],
      "payable": false,
      "stateMutability": "view",
      "type": "function"
    },
    {
      "constant": false,
      "inputs": [
        {
          "name": "_spender",
          "type": "address"
        },
        {
          "name": "_value",
          "type": "uint256"
        }
      ],
      "name": "approve",
      "outputs": [
        {
          "name": "success",
          "type": "bool"
        }
      ],
      "payable": false,
      "stateMutability": "nonpayable",
      "type": "function"
    },
    {
      "constant": false,
      "inputs": [],
      "name": "stableCoins",
      "outputs": [],
      "payable": false,
      "stateMutability": "nonpayable",
      "type": "function"
    },
    {
      "constant": true,
      "inputs": [],
      "name": "totalSupply",
      "outputs": [
        {
          "name": "",
          "type": "uint256"
        }
      ],
      "payable": false,
      "stateMutability": "view",
      "type": "function"
    },
    {
      "constant": false,
      "inputs": [
        {
          "name": "_from",
          "type": "address"
        },
        {
          "name": "_to",
          "type": "address"
        },
        {
          "name": "_value",
          "type": "uint256"
        }
      ],
      "name": "transferFrom",
      "outputs": [
        {
          "name": "success",
          "type": "bool"
        }
      ],
      "payable": false,
      "stateMutability": "nonpayable",
      "type": "function"
    },
    {
      "constant": true,
      "inputs": [],
      "name": "decimals",
      "outputs": [
        {
          "name": "",
          "type": "uint8"
        }
      ],
      "payable": false,
      "stateMutability": "view",
      "type": "function"
    },
    {
      "constant": false,
      "inputs": [],
      "name": "unhalted",
      "outputs": [],
      "payable": false,
      "stateMutability": "nonpayable",
      "type": "function"
    },
    {
      "constant": true,
      "inputs": [],
      "name": "initialSupply",
      "outputs": [
        {
          "name": "",
          "type": "uint256"
        }
      ],
      "payable": false,
      "stateMutability": "view",
      "type": "function"
    },
    {
      "constant": true,
      "inputs": [],
      "name": "tokenDecimals",
      "outputs": [
        {
          "name": "",
          "type": "uint8"
        }
      ],
      "payable": false,
      "stateMutability": "view",
      "type": "function"
    },
    {
      "constant": true,
      "inputs": [],
      "name": "exchangeRate",
      "outputs": [
        {
          "name": "",
          "type": "uint256"
        }
      ],
      "payable": false,
      "stateMutability": "view",
      "type": "function"
    },
    {
      "constant": false,
      "inputs": [
        {
          "name": "_to",
          "type": "address"
        },
        {
          "name": "_amount",
          "type": "uint256"
        }
      ],
      "name": "mint",
      "outputs": [
        {
          "name": "",
          "type": "bool"
        }
      ],
      "payable": false,
      "stateMutability": "nonpayable",
      "type": "function"
    },
    {
      "constant": false,
      "inputs": [
        {
          "name": "_value",
          "type": "uint256"
        }
      ],
      "name": "burn",
      "outputs": [],
      "payable": false,
      "stateMutability": "nonpayable",
      "type": "function"
    },
    {
      "constant": true,
      "inputs": [],
      "name": "standard",
      "outputs": [
        {
          "name": "",
          "type": "string"
        }
      ],
      "payable": false,
      "stateMutability": "view",
      "type": "function"
    },
    {
      "constant": false,
      "inputs": [],
      "name": "halt",
      "outputs": [],
      "payable": false,
      "stateMutability": "nonpayable",
      "type": "function"
    },
    {
      "constant": true,
      "inputs": [],
      "name": "tokenName",
      "outputs": [
        {
          "name": "",
          "type": "string"
        }
      ],
      "payable": false,
      "stateMutability": "view",
      "type": "function"
    },
    {
      "constant": true,
      "inputs": [
        {
          "name": "",
          "type": "address"
        }
      ],
      "name": "balanceOf",
      "outputs": [
        {
          "name": "",
          "type": "uint256"
        }
      ],
      "payable": false,
      "stateMutability": "view",
      "type": "function"
    },
    {
      "constant": true,
      "inputs": [],
      "name": "tokenSymbol",
      "outputs": [
        {
          "name": "",
          "type": "string"
        }
      ],
      "payable": false,
      "stateMutability": "view",
      "type": "function"
    },
    {
      "constant": false,
      "inputs": [],
      "name": "finishMinting",
      "outputs": [
        {
          "name": "",
          "type": "bool"
        }
      ],
      "payable": false,
      "stateMutability": "nonpayable",
      "type": "function"
    },
    {
      "constant": true,
      "inputs": [],
      "name": "owner",
      "outputs": [
        {
          "name": "",
          "type": "address"
        }
      ],
      "payable": false,
      "stateMutability": "view",
      "type": "function"
    },
    {
      "constant": true,
      "inputs": [],
      "name": "symbol",
      "outputs": [
        {
          "name": "",
          "type": "string"
        }
      ],
      "payable": false,
      "stateMutability": "view",
      "type": "function"
    },
    {
      "constant": false,
      "inputs": [
        {
          "name": "_to",
          "type": "address"
        },
        {
          "name": "_value",
          "type": "uint256"
        }
      ],
      "name": "transfer",
      "outputs": [
        {
          "name": "",
          "type": "bool"
        }
      ],
      "payable": false,
      "stateMutability": "nonpayable",
      "type": "function"
    },
    {
      "constant": true,
      "inputs": [
        {
          "name": "",
          "type": "address"
        }
      ],
      "name": "frozenAccount",
      "outputs": [
        {
          "name": "",
          "type": "bool"
        }
      ],
      "payable": false,
      "stateMutability": "view",
      "type": "function"
    },
    {
      "constant": true,
      "inputs": [
        {
          "name": "",
          "type": "uint256"
        }
      ],
      "name": "allTokenAddr",
      "outputs": [
        {
          "name": "",
          "type": "address"
        }
      ],
      "payable": false,
      "stateMutability": "view",
      "type": "function"
    },
    {
      "constant": true,
      "inputs": [],
      "name": "halted",
      "outputs": [
        {
          "name": "",
          "type": "bool"
        }
      ],
      "payable": false,
      "stateMutability": "view",
      "type": "function"
    },
    {
      "constant": false,
      "inputs": [
        {
          "name": "_spender",
          "type": "address"
        },
        {
          "name": "_value",
          "type": "uint256"
        },
        {
          "name": "_extraData",
          "type": "bytes"
        }
      ],
      "name": "approveAndCall",
      "outputs": [
        {
          "name": "success",
          "type": "bool"
        }
      ],
      "payable": false,
      "stateMutability": "nonpayable",
      "type": "function"
    },
    {
      "constant": false,
      "inputs": [
        {
          "name": "newExchangeRate",
          "type": "uint256"
        }
      ],
      "name": "setExchangeRate",
      "outputs": [],
      "payable": false,
      "stateMutability": "nonpayable",
      "type": "function"
    },
    {
      "constant": true,
      "inputs": [
        {
          "name": "",
          "type": "address"
        },
        {
          "name": "",
          "type": "address"
        }
      ],
      "name": "allowance",
      "outputs": [
        {
          "name": "",
          "type": "uint256"
        }
      ],
      "payable": false,
      "stateMutability": "view",
      "type": "function"
    },
    {
      "constant": false,
      "inputs": [
        {
          "name": "target",
          "type": "address"
        },
        {
          "name": "freeze",
          "type": "bool"
        }
      ],
      "name": "freezeAccount",
      "outputs": [],
      "payable": false,
      "stateMutability": "nonpayable",
      "type": "function"
    },
    {
      "constant": false,
      "inputs": [
        {
          "name": "newOwner",
          "type": "address"
        }
      ],
      "name": "transferOwnership",
      "outputs": [],
      "payable": false,
      "stateMutability": "nonpayable",
      "type": "function"
    },
    {
      "inputs": [],
      "payable": false,
      "stateMutability": "nonpayable",
      "type": "constructor"
    },
    {
      "anonymous": false,
      "inputs": [
        {
          "indexed": true,
          "name": "target",
          "type": "address"
        },
        {
          "indexed": false,
          "name": "frozen",
          "type": "bool"
        }
      ],
      "name": "FrozenFunds",
      "type": "event"
    },
    {
      "anonymous": false,
      "inputs": [
        {
          "indexed": true,
          "name": "target",
          "type": "address"
        },
        {
          "indexed": false,
          "name": "stabled",
          "type": "uint8"
        },
        {
          "indexed": false,
          "name": "amount",
          "type": "uint256"
        }
      ],
      "name": "StableCoins",
      "type": "event"
    },
    {
      "anonymous": false,
      "inputs": [
        {
          "indexed": true,
          "name": "burner",
          "type": "address"
        },
        {
          "indexed": false,
          "name": "value",
          "type": "uint256"
        }
      ],
      "name": "Burn",
      "type": "event"
    },
    {
      "anonymous": false,
      "inputs": [
        {
          "indexed": true,
          "name": "to",
          "type": "address"
        },
        {
          "indexed": false,
          "name": "amount",
          "type": "uint256"
        }
      ],
      "name": "Mint",
      "type": "event"
    },
    {
      "anonymous": false,
      "inputs": [],
      "name": "MintFinished",
      "type": "event"
    },
    {
      "anonymous": false,
      "inputs": [
        {
          "indexed": true,
          "name": "previousOwner",
          "type": "address"
        },
        {
          "indexed": true,
          "name": "newOwner",
          "type": "address"
        }
      ],
      "name": "OwnershipTransferred",
      "type": "event"
    },
    {
      "anonymous": false,
      "inputs": [
        {
          "indexed": true,
          "name": "_from",
          "type": "address"
        },
        {
          "indexed": true,
          "name": "_to",
          "type": "address"
        },
        {
          "indexed": false,
          "name": "_value",
          "type": "uint256"
        }
      ],
      "name": "Transfer",
      "type": "event"
    },
    {
      "anonymous": false,
      "inputs": [
        {
          "indexed": true,
          "name": "_owner",
          "type": "address"
        },
        {
          "indexed": true,
          "name": "_spender",
          "type": "address"
        },
        {
          "indexed": false,
          "name": "_value",
          "type": "uint256"
        }
      ],
      "name": "Approval",
      "type": "event"
    }
  ],
  "bytecode": "0x606060405260008060006101000a81548160ff021916908360ff1602179055506000600660146101000a81548160ff02191690831515021790555063773594006007556000600860006101000a81548160ff02191690831515021790555034156200006957600080fd5b6007546040805190810160405280600481526020017f55535458000000000000000000000000000000000000000000000000000000008152506040805190810160405280600481526020017f555354580000000000000000000000000000000000000000000000000000000081525060086000809054906101000a900460ff1660ff16600a0a8402600381905550600354600460003373ffffffffffffffffffffffffffffffffffffffff1673ffffffffffffffffffffffffffffffffffffffff16815260200190815260200160002081905550826001908051906020019062000155929190620002c0565b5081600290805190602001906200016e929190620002c0565b50806000806101000a81548160ff021916908360ff1602179055505050505033600660006101000a81548173ffffffffffffffffffffffffffffffffffffffff021916908373ffffffffffffffffffffffffffffffffffffffff160217905550600354600460003373ffffffffffffffffffffffffffffffffffffffff1673ffffffffffffffffffffffffffffffffffffffff1681526020019081526020016000208190555033600660006101000a81548173ffffffffffffffffffffffffffffffffffffffff021916908373ffffffffffffffffffffffffffffffffffffffff160217905550600c80548060010182816200026b919062000347565b9160005260206000209001600033909190916101000a81548173ffffffffffffffffffffffffffffffffffffffff021916908373ffffffffffffffffffffffffffffffffffffffff160217905550506200039e565b828054600181600116156101000203166002900490600052602060002090601f016020900481019282601f106200030357805160ff191683800117855562000334565b8280016001018555821562000334579182015b828111156200033357825182559160200191906001019062000316565b5b50905062000343919062000376565b5090565b815481835581811511620003715781836000526020600020918201910162000370919062000376565b5b505050565b6200039b91905b80821115620003975760008160009055506001016200037d565b5090565b90565b61239680620003ae6000396000f300606060405260043610610180576000357c0100000000000000000000000000000000000000000000000000000000900463ffffffff16806305d2035b1461018557806306fdde03146101b2578063095ea7b3146102405780630c4c79491461029a57806318160ddd146102af57806323b872dd146102d8578063313ce5671461035157806334faa4c314610380578063378dc3dc146103955780633b97e856146103be5780633ba0b9a9146103ed57806340c10f191461041657806342966c68146104705780635a3b7e42146104935780635ed7ca5b146105215780636c02a9311461053657806370a08231146105c45780637b61c320146106115780637d64bcb41461069f5780638da5cb5b146106cc57806395d89b4114610721578063a9059cbb146107af578063b414d4b614610809578063b879c8321461085a578063b9b8af0b146108bd578063cae9ca51146108ea578063db068e0e14610987578063dd62ed3e146109aa578063e724529c14610a16578063f2fde38b14610a5a575b600080fd5b341561019057600080fd5b610198610a93565b604051808215151515815260200191505060405180910390f35b34156101bd57600080fd5b6101c5610aa6565b6040518080602001828103825283818151815260200191508051906020019080838360005b838110156102055780820151818401526020810190506101ea565b50505050905090810190601f1680156102325780820380516001836020036101000a031916815260200191505b509250505060405180910390f35b341561024b57600080fd5b610280600480803573ffffffffffffffffffffffffffffffffffffffff16906020019091908035906020019091905050610b44565b604051808215151515815260200191505060405180910390f35b34156102a557600080fd5b6102ad610cf4565b005b34156102ba57600080fd5b6102c261109f565b6040518082815260200191505060405180910390f35b34156102e357600080fd5b610337600480803573ffffffffffffffffffffffffffffffffffffffff1690602001909190803573ffffffffffffffffffffffffffffffffffffffff169060200190919080359060200190919050506110a5565b604051808215151515815260200191505060405180910390f35b341561035c57600080fd5b610364611385565b604051808260ff1660ff16815260200191505060405180910390f35b341561038b57600080fd5b610393611397565b005b34156103a057600080fd5b6103a8611410565b6040518082815260200191505060405180910390f35b34156103c957600080fd5b6103d1611416565b604051808260ff1660ff16815260200191505060405180910390f35b34156103f857600080fd5b61040061141b565b6040518082815260200191505060405180910390f35b341561042157600080fd5b610456600480803573ffffffffffffffffffffffffffffffffffffffff16906020019091908035906020019091905050611421565b604051808215151515815260200191505060405180910390f35b341561047b57600080fd5b61049160048080359060200190919050506115f7565b005b341561049e57600080fd5b6104a661165f565b6040518080602001828103825283818151815260200191508051906020019080838360005b838110156104e65780820151818401526020810190506104cb565b50505050905090810190601f1680156105135780820380516001836020036101000a031916815260200191505b509250505060405180910390f35b341561052c57600080fd5b610534611698565b005b341561054157600080fd5b610549611711565b6040518080602001828103825283818151815260200191508051906020019080838360005b8381101561058957808201518184015260208101905061056e565b50505050905090810190601f1680156105b65780820380516001836020036101000a031916815260200191505b509250505060405180910390f35b34156105cf57600080fd5b6105fb600480803573ffffffffffffffffffffffffffffffffffffffff1690602001909190505061174a565b6040518082815260200191505060405180910390f35b341561061c57600080fd5b610624611762565b6040518080602001828103825283818151815260200191508051906020019080838360005b83811015610664578082015181840152602081019050610649565b50505050905090810190601f1680156106915780820380516001836020036101000a031916815260200191505b509250505060405180910390f35b34156106aa57600080fd5b6106b261179b565b604051808215151515815260200191505060405180910390f35b34156106d757600080fd5b6106df611863565b604051808273ffffffffffffffffffffffffffffffffffffffff1673ffffffffffffffffffffffffffffffffffffffff16815260200191505060405180910390f35b341561072c57600080fd5b610734611889565b6040518080602001828103825283818151815260200191508051906020019080838360005b83811015610774578082015181840152602081019050610759565b50505050905090810190601f1680156107a15780820380516001836020036101000a031916815260200191505b509250505060405180910390f35b34156107ba57600080fd5b6107ef600480803573ffffffffffffffffffffffffffffffffffffffff16906020019091908035906020019091905050611927565b604051808215151515815260200191505060405180910390f35b341561081457600080fd5b610840600480803573ffffffffffffffffffffffffffffffffffffffff16906020019091905050611b12565b604051808215151515815260200191505060405180910390f35b341561086557600080fd5b61087b6004808035906020019091905050611b32565b604051808273ffffffffffffffffffffffffffffffffffffffff1673ffffffffffffffffffffffffffffffffffffffff16815260200191505060405180910390f35b34156108c857600080fd5b6108d0611b71565b604051808215151515815260200191505060405180910390f35b34156108f557600080fd5b61096d600480803573ffffffffffffffffffffffffffffffffffffffff1690602001909190803590602001909190803590602001908201803590602001908080601f01602080910402602001604051908101604052809392919081815260200183838082843782019150505050505091905050611b84565b604051808215151515815260200191505060405180910390f35b341561099257600080fd5b6109a86004808035906020019091905050611d02565b005b34156109b557600080fd5b610a00600480803573ffffffffffffffffffffffffffffffffffffffff1690602001909190803573ffffffffffffffffffffffffffffffffffffffff16906020019091905050611d68565b6040518082815260200191505060405180910390f35b3415610a2157600080fd5b610a58600480803573ffffffffffffffffffffffffffffffffffffffff169060200190919080351515906020019091905050611d8d565b005b3415610a6557600080fd5b610a91600480803573ffffffffffffffffffffffffffffffffffffffff16906020019091905050611e96565b005b600660149054906101000a900460ff1681565b60018054600181600116156101000203166002900480601f016020809104026020016040519081016040528092919081815260200182805460018160011615610100020316600290048015610b3c5780601f10610b1157610100808354040283529160200191610b3c565b820191906000526020600020905b815481529060010190602001808311610b1f57829003601f168201915b505050505081565b60008260008173ffffffffffffffffffffffffffffffffffffffff1614151515610b6d57600080fd5b6000831480610bf857506000600560003373ffffffffffffffffffffffffffffffffffffffff1673ffffffffffffffffffffffffffffffffffffffff16815260200190815260200160002060008673ffffffffffffffffffffffffffffffffffffffff1673ffffffffffffffffffffffffffffffffffffffff16815260200190815260200160002054145b1515610c0357600080fd5b82600560003373ffffffffffffffffffffffffffffffffffffffff1673ffffffffffffffffffffffffffffffffffffffff16815260200190815260200160002060008673ffffffffffffffffffffffffffffffffffffffff1673ffffffffffffffffffffffffffffffffffffffff168152602001908152602001600020819055508373ffffffffffffffffffffffffffffffffffffffff163373ffffffffffffffffffffffffffffffffffffffff167f8c5be1e5ebec7d5bd14f71427d1e84f3dd0314c0f7b2291e5b200ac8c7c3b925856040518082815260200191505060405180910390a3600191505092915050565b600080600080600080600660009054906101000a900473ffffffffffffffffffffffffffffffffffffffff1673ffffffffffffffffffffffffffffffffffffffff163373ffffffffffffffffffffffffffffffffffffffff16141515610d5957600080fd5b600094505b600c8054905085101561108457600c85815481101515610d7a57fe5b906000526020600020900160009054906101000a900473ffffffffffffffffffffffffffffffffffffffff169350600460008573ffffffffffffffffffffffffffffffffffffffff1673ffffffffffffffffffffffffffffffffffffffff168152602001908152602001600020549250600083118015610e4957506001600b60008673ffffffffffffffffffffffffffffffffffffffff1673ffffffffffffffffffffffffffffffffffffffff16815260200190815260200160002060009054906101000a900460ff1660ff16145b15611077576002600b60008673ffffffffffffffffffffffffffffffffffffffff1673ffffffffffffffffffffffffffffffffffffffff16815260200190815260200160002060006101000a81548160ff021916908360ff16021790555082915060646009541015610fef57600460008573ffffffffffffffffffffffffffffffffffffffff1673ffffffffffffffffffffffffffffffffffffffff1681526020019081526020016000205482038601955060646009548402811515610f0b57fe5b04600460008673ffffffffffffffffffffffffffffffffffffffff1673ffffffffffffffffffffffffffffffffffffffff168152602001908152602001600020819055508373ffffffffffffffffffffffffffffffffffffffff167f438e0c1626b59b1b990b2762bb1d26fe11d1bd95dfe6d310f61f0df373600b416001600460008873ffffffffffffffffffffffffffffffffffffffff1673ffffffffffffffffffffffffffffffffffffffff168152602001908152602001600020548503604051808360ff1681526020018281526020019250505060405180910390a2611076565b6064600954111561107557816064600954850281151561100b57fe5b040390506110198482611421565b508373ffffffffffffffffffffffffffffffffffffffff167f438e0c1626b59b1b990b2762bb1d26fe11d1bd95dfe6d310f61f0df373600b41600283604051808360ff1681526020018281526020019250505060405180910390a25b5b5b8480600101955050610d5e565b600086111561109757611096866115f7565b5b505050505050565b60035481565b60008360008173ffffffffffffffffffffffffffffffffffffffff16141515156110ce57600080fd5b8360008173ffffffffffffffffffffffffffffffffffffffff16141515156110f557600080fd5b61117b600560008873ffffffffffffffffffffffffffffffffffffffff1673ffffffffffffffffffffffffffffffffffffffff16815260200190815260200160002060003373ffffffffffffffffffffffffffffffffffffffff1673ffffffffffffffffffffffffffffffffffffffff1681526020019081526020016000205485611fee565b600560008873ffffffffffffffffffffffffffffffffffffffff1673ffffffffffffffffffffffffffffffffffffffff16815260200190815260200160002060003373ffffffffffffffffffffffffffffffffffffffff1673ffffffffffffffffffffffffffffffffffffffff16815260200190815260200160002081905550611244600460008873ffffffffffffffffffffffffffffffffffffffff1673ffffffffffffffffffffffffffffffffffffffff1681526020019081526020016000205485611fee565b600460008873ffffffffffffffffffffffffffffffffffffffff1673ffffffffffffffffffffffffffffffffffffffff168152602001908152602001600020819055506112d0600460008773ffffffffffffffffffffffffffffffffffffffff1673ffffffffffffffffffffffffffffffffffffffff1681526020019081526020016000205485612007565b600460008773ffffffffffffffffffffffffffffffffffffffff1673ffffffffffffffffffffffffffffffffffffffff168152602001908152602001600020819055508473ffffffffffffffffffffffffffffffffffffffff168673ffffffffffffffffffffffffffffffffffffffff167fddf252ad1be2c89b69c2b068fc378daa952ba7f163c4a11628f55a4df523b3ef866040518082815260200191505060405180910390a36001925050509392505050565b6000809054906101000a900460ff1681565b600660009054906101000a900473ffffffffffffffffffffffffffffffffffffffff1673ffffffffffffffffffffffffffffffffffffffff163373ffffffffffffffffffffffffffffffffffffffff161415156113f357600080fd5b6000600860006101000a81548160ff021916908315150217905550565b60075481565b600881565b60095481565b6000600660009054906101000a900473ffffffffffffffffffffffffffffffffffffffff1673ffffffffffffffffffffffffffffffffffffffff163373ffffffffffffffffffffffffffffffffffffffff1614151561147f57600080fd5b600660149054906101000a900460ff1615151561149b57600080fd5b6114a760035483612007565b6003819055506114f6600460008573ffffffffffffffffffffffffffffffffffffffff1673ffffffffffffffffffffffffffffffffffffffff1681526020019081526020016000205483612007565b600460008573ffffffffffffffffffffffffffffffffffffffff1673ffffffffffffffffffffffffffffffffffffffff168152602001908152602001600020819055508273ffffffffffffffffffffffffffffffffffffffff167f0f6798a560793a54c3bcfe86a93cde1e73087d944c0ea20544137d4121396885836040518082815260200191505060405180910390a28273ffffffffffffffffffffffffffffffffffffffff16600073ffffffffffffffffffffffffffffffffffffffff167fddf252ad1be2c89b69c2b068fc378daa952ba7f163c4a11628f55a4df523b3ef846040518082815260200191505060405180910390a36001905092915050565b600660009054906101000a900473ffffffffffffffffffffffffffffffffffffffff1673ffffffffffffffffffffffffffffffffffffffff163373ffffffffffffffffffffffffffffffffffffffff1614151561165357600080fd5b61165c81612025565b50565b6040805190810160405280600381526020017f312e30000000000000000000000000000000000000000000000000000000000081525081565b600660009054906101000a900473ffffffffffffffffffffffffffffffffffffffff1673ffffffffffffffffffffffffffffffffffffffff163373ffffffffffffffffffffffffffffffffffffffff161415156116f457600080fd5b6001600860006101000a81548160ff021916908315150217905550565b6040805190810160405280600481526020017f555354580000000000000000000000000000000000000000000000000000000081525081565b60046020528060005260406000206000915090505481565b6040805190810160405280600481526020017f555354580000000000000000000000000000000000000000000000000000000081525081565b6000600660009054906101000a900473ffffffffffffffffffffffffffffffffffffffff1673ffffffffffffffffffffffffffffffffffffffff163373ffffffffffffffffffffffffffffffffffffffff161415156117f957600080fd5b600660149054906101000a900460ff1615151561181557600080fd5b6001600660146101000a81548160ff0219169083151502179055507fae5184fba832cb2b1f702aca6117b8d265eaf03ad33eb133f19dde0f5920fa0860405160405180910390a16001905090565b600660009054906101000a900473ffffffffffffffffffffffffffffffffffffffff1681565b60028054600181600116156101000203166002900480601f01602080910402602001604051908101604052809291908181526020018280546001816001161561010002031660029004801561191f5780601f106118f45761010080835404028352916020019161191f565b820191906000526020600020905b81548152906001019060200180831161190257829003601f168201915b505050505081565b600033600a60008273ffffffffffffffffffffffffffffffffffffffff1673ffffffffffffffffffffffffffffffffffffffff16815260200190815260200160002060009054906101000a900460ff1615151561198357600080fd5b600860009054906101000a900460ff1615151561199f57600080fd5b6000600460008673ffffffffffffffffffffffffffffffffffffffff1673ffffffffffffffffffffffffffffffffffffffff16815260200190815260200160002054148015611a3e57506001600b60008673ffffffffffffffffffffffffffffffffffffffff1673ffffffffffffffffffffffffffffffffffffffff16815260200190815260200160002060009054906101000a900460ff1660ff1614155b15611b00576001600b60008673ffffffffffffffffffffffffffffffffffffffff1673ffffffffffffffffffffffffffffffffffffffff16815260200190815260200160002060006101000a81548160ff021916908360ff160217905550600c8054806001018281611ab09190612319565b9160005260206000209001600086909190916101000a81548173ffffffffffffffffffffffffffffffffffffffff021916908373ffffffffffffffffffffffffffffffffffffffff160217905550505b611b0a8484612168565b505092915050565b600a6020528060005260406000206000915054906101000a900460ff1681565b600c81815481101515611b4157fe5b90600052602060002090016000915054906101000a900473ffffffffffffffffffffffffffffffffffffffff1681565b600860009054906101000a900460ff1681565b600080849050611b948585610b44565b15611cf9578073ffffffffffffffffffffffffffffffffffffffff16638f4ffcb1338630876040518563ffffffff167c0100000000000000000000000000000000000000000000000000000000028152600401808573ffffffffffffffffffffffffffffffffffffffff1673ffffffffffffffffffffffffffffffffffffffff1681526020018481526020018373ffffffffffffffffffffffffffffffffffffffff1673ffffffffffffffffffffffffffffffffffffffff16815260200180602001828103825283818151815260200191508051906020019080838360005b83811015611c8e578082015181840152602081019050611c73565b50505050905090810190601f168015611cbb5780820380516001836020036101000a031916815260200191505b5095505050505050600060405180830381600087803b1515611cdc57600080fd5b6102c65a03f11515611ced57600080fd5b50505060019150611cfa565b5b509392505050565b600660009054906101000a900473ffffffffffffffffffffffffffffffffffffffff1673ffffffffffffffffffffffffffffffffffffffff163373ffffffffffffffffffffffffffffffffffffffff16141515611d5e57600080fd5b8060098190555050565b6005602052816000526040600020602052806000526040600020600091509150505481565b600660009054906101000a900473ffffffffffffffffffffffffffffffffffffffff1673ffffffffffffffffffffffffffffffffffffffff163373ffffffffffffffffffffffffffffffffffffffff16141515611de957600080fd5b80600a60008473ffffffffffffffffffffffffffffffffffffffff1673ffffffffffffffffffffffffffffffffffffffff16815260200190815260200160002060006101000a81548160ff0219169083151502179055508173ffffffffffffffffffffffffffffffffffffffff167f48335238b4855f35377ed80f164e8c6f3c366e54ac00b96a6402d4a9814a03a582604051808215151515815260200191505060405180910390a25050565b600660009054906101000a900473ffffffffffffffffffffffffffffffffffffffff1673ffffffffffffffffffffffffffffffffffffffff163373ffffffffffffffffffffffffffffffffffffffff16141515611ef257600080fd5b600073ffffffffffffffffffffffffffffffffffffffff168173ffffffffffffffffffffffffffffffffffffffff1614151515611f2e57600080fd5b8073ffffffffffffffffffffffffffffffffffffffff16600660009054906101000a900473ffffffffffffffffffffffffffffffffffffffff1673ffffffffffffffffffffffffffffffffffffffff167f8be0079c531659141344cd1fd0a4f28419497f9722a3daafe3b4186f6b6457e060405160405180910390a380600660006101000a81548173ffffffffffffffffffffffffffffffffffffffff021916908373ffffffffffffffffffffffffffffffffffffffff16021790555050565b6000818310151515611ffc57fe5b818303905092915050565b600080828401905083811015151561201b57fe5b8091505092915050565b6000600460003373ffffffffffffffffffffffffffffffffffffffff1673ffffffffffffffffffffffffffffffffffffffff16815260200190815260200160002054821115151561207557600080fd5b3390506120c1600460008373ffffffffffffffffffffffffffffffffffffffff1673ffffffffffffffffffffffffffffffffffffffff1681526020019081526020016000205483611fee565b600460008373ffffffffffffffffffffffffffffffffffffffff1673ffffffffffffffffffffffffffffffffffffffff1681526020019081526020016000208190555061211060035483611fee565b6003819055508073ffffffffffffffffffffffffffffffffffffffff167fcc16f5dbb4873280815c1ee09dbd06736cffcc184412cf7a71a0fdb75d397ca5836040518082815260200191505060405180910390a25050565b60008260008173ffffffffffffffffffffffffffffffffffffffff161415151561219157600080fd5b6121da600460003373ffffffffffffffffffffffffffffffffffffffff1673ffffffffffffffffffffffffffffffffffffffff1681526020019081526020016000205484611fee565b600460003373ffffffffffffffffffffffffffffffffffffffff1673ffffffffffffffffffffffffffffffffffffffff16815260200190815260200160002081905550612266600460008673ffffffffffffffffffffffffffffffffffffffff1673ffffffffffffffffffffffffffffffffffffffff1681526020019081526020016000205484612007565b600460008673ffffffffffffffffffffffffffffffffffffffff1673ffffffffffffffffffffffffffffffffffffffff168152602001908152602001600020819055508373ffffffffffffffffffffffffffffffffffffffff163373ffffffffffffffffffffffffffffffffffffffff167fddf252ad1be2c89b69c2b068fc378daa952ba7f163c4a11628f55a4df523b3ef856040518082815260200191505060405180910390a3600191505092915050565b8154818355818115116123405781836000526020600020918201910161233f9190612345565b5b505050565b61236791905b8082111561236357600081600090555060010161234b565b5090565b905600a165627a7a72305820f3362cb3f156a5cb2f223cf7722737b8feb9fe9b0a21559a88cd62e63029ed540029",
  "source": "pragma solidity ^0.4.17;\r\nimport './MintableToken.sol';\r\nimport './BurnableToken.sol';\r\n\r\n\r\ninterface tokenRecipient { function receiveApproval(address _from, uint256 _value, address _token, bytes _extraData) public; }\r\n/**\r\n * @title The final Ustx token\r\n */\r\ncontract UstxToken  is MintableToken,BurnableToken {\r\n\r\n\r\n    string public constant tokenName = \"USTX\";//token name\r\n    string public constant tokenSymbol = \"USTX\";//token symbol\r\n    uint256 public initialSupply = 2*10**9;// initial total amount\r\n    uint8 public constant tokenDecimals = 8;\r\n    bool public halted = false;//When an emergency occurs, the creator can call the halt function, stop all operations on the funds\r\n\r\n    uint256 public exchangeRate;//Exchange rate\r\n    mapping (address => bool) public frozenAccount;//Whether or not to freeze a list of accounts\r\n    mapping (address => uint8) stabled;//share token turn into  stable coin\r\n    address[] public allTokenAddr;//All have a balance of the token address\r\n\r\n    event FrozenFunds(address indexed target, bool frozen);\r\n    /**\r\n    *@param target  target address\r\n    *@param stabled  1->decrease amount  2->increase\r\n    *@param amount  Change amount\r\n    */\r\n    event StableCoins(address indexed target, uint8 stabled,uint256 amount);\r\n\r\n\r\n    function UstxToken() ERC20Token(initialSupply, tokenName, tokenSymbol,tokenDecimals) public {\r\n        balanceOf[msg.sender] = totalSupply;\r\n        owner = msg.sender;\r\n        allTokenAddr.push(msg.sender);\r\n    }\r\n\r\n    function approveAndCall(address _spender,uint256 _value,bytes _extraData) public returns (bool success) {\r\n        tokenRecipient spender = tokenRecipient(_spender);\r\n        if(approve(_spender,_value)) {\r\n            spender.receiveApproval(msg.sender,_value,this,_extraData);\r\n            return true;\r\n        }\r\n    }\r\n\r\n    function burn(uint256 _value) onlyOwner public {\r\n        super.burn(_value);\r\n    }\r\n\r\n    function transfer(address _to, uint256 _value) accountFreezed(msg.sender) unhaltedOperation public returns (bool) {\r\n        if(balanceOf[_to] == 0 && stabled[_to] != 1){\r\n            stabled[_to] = 1;\r\n            allTokenAddr.push(_to);\r\n        }\r\n        super.transfer(_to,_value);\r\n    }\r\n   /**\r\n    * Freeze accounts and thaw accounts\r\n    *  @param target address account address\r\n    *  @param freeze bool Whether it is frozen\r\n    *\r\n   */\r\n    function freezeAccount(address target,bool freeze) onlyOwner public {\r\n        frozenAccount[target] = freeze;\r\n        FrozenFunds(target, freeze);\r\n    }\r\n\r\n   //Determine whether the account is frozen\r\n    modifier accountFreezed(address _to) {\r\n        require(!frozenAccount[_to]);\r\n        _;\r\n    }\r\n\r\n\r\n    function setExchangeRate(uint256 newExchangeRate) onlyOwner public {\r\n        exchangeRate = newExchangeRate;\r\n    }\r\n\r\n    /*\r\n    *shareToken to  stableToken\r\n    */\r\n    function stableCoins() onlyOwner public {\r\n        uint256 burnTotalToken;\r\n        for(uint256 i=0; i< allTokenAddr.length; i++){\r\n\r\n            address addr = allTokenAddr[i];//\r\n            uint256 balance = balanceOf[addr];\r\n            if(balance >0 && stabled[addr] == 1){//  \r\n\r\n                stabled[addr] = 2;\r\n                uint256 oldBalance = balance;\r\n\r\n                if(exchangeRate <100){//\r\n                    burnTotalToken += (oldBalance - balanceOf[addr]);\r\n                    balanceOf[addr] = balance * exchangeRate /100;\r\n                    StableCoins(addr,1,(oldBalance - balanceOf[addr]));\r\n                }else if(exchangeRate >100){// \r\n                    uint256 _amount = (balance * exchangeRate /100) - oldBalance;\r\n                    mint(addr, _amount);\r\n                    StableCoins(addr,2,_amount);\r\n                }\r\n\r\n             }\r\n         }\r\n         //Destroy the excess token\r\n         if(burnTotalToken >0){\r\n             burn(burnTotalToken);\r\n         }\r\n      }\r\n\r\n      function halt() onlyOwner public {\r\n          halted = true;\r\n      }\r\n\r\n      function unhalted() onlyOwner public {\r\n          halted = false;\r\n      }\r\n    /**\r\n    *Judge whether to suspend the operation\r\n    */\r\n    modifier unhaltedOperation() {\r\n        require(!halted);\r\n        _;\r\n    }\r\n\r\n\r\n\r\n}\r\n",
  "sourcePath": "G:\\solidity_workspace\\usdx\\contracts\\UstxToken.sol",
  "compiler": {
    "name": "solc",
    "version": "0.4.18+commit.9cf6e910.Emscripten.clang"
  },
  "schemaVersion": "1.0.1",
  "updatedAt": "2018-01-19T02:23:15.800Z"
}